:020000040800F2
:100000000000022061040008810200088502000847
:10001000890200088D02000891020008000000001B
:100020000000000000000000000000009502000831
:1000300099020008000000009D020008A1020008CB
:10004000A9040008A9040008A9040008A9040008DC
:10005000A9040008A9040008A9040008A9040008CC
:10006000A9040008A9040008A9040008A9040008BC
:10007000A9040008A9040008A9040008A9040008AC
:10008000A9040008A9040008A9040008A90400089C
:10009000A9040008A9040008A9040008A90400088C
:1000A000A9040008A9040008A9040008A90400087C
:1000B000A9040008A9040008A9040008A90400086C
:1000C000A9040008A9040008A9040008A90400085C
:1000D000A9040008A9040008A9040008A90400084C
:1000E000A9040008A9040008A9040008A90400083C
:1000F000A9040008A9040008A9040008A90400082C
:10010000A9040008A9040008A9040008A90400081B
:10011000A9040008A9040008A9040008A90400080B
:10012000A9040008A9040008A9040008A9040008FB
:10013000A9040008A9040008A9040008A9040008EB
:10014000A9040008A9040008A9040008A9040008DB
:10015000A9040008A9040008A9040008A9040008CB
:10016000A9040008A9040008A9040008A9040008BB
:10017000A9040008A9040008A9040008A9040008AB
:08018000A9040008A90400080D
:1001880010B5054C237833B9044B13B10448AFF3C9
:1001980000800123237010BD4804002000000000E7
:1001A800E0070008084B10B51BB108490848AFF331
:1001B80000800848036803B910BD074B002BFBD02B
:1001C800BDE81040184700BF000000004C040020A4
:1001D800E00700084404002000000000154B002B35
:1001E80008BF134B9D46A3F5803A00218B460F4666
:1001F8001348144A121A00F0BBF90F4B002B00D019
:1002080098470E4B002B00D098470020002104008F
:100218000D000D48002802D00C4800F06DFA00F0DF
:100228007FF92000290000F03DF900F069F900BFCE
:1002380000000800000000000000000000000000AE
:100248004804002064040020010700080D07000886
:100258001008000800000020440400204804002082
:100268006404002082B00190019B5A1E0192002B69
:10027800FAD102B0704700BF704700BFFEE700BF69
:10028800FEE700BFFEE700BFFEE700BF704700BF04
:10029800704700BF704700BF704700BF364B3748F4
:1002A8001A68002142F001021A6099601A6822F067
:1002B800847222F480321A6058601A6882B022F47C
:1002C80080221A60D960009101911A6842F4803244
:1002D8001A601A4603E0009BB3F5A06F09D01368B3
:1002E80003F400330193009B01330093019B002B1F
:1002F800F1D0214B1B6813F4003318BF012301937D
:10030800019B012B05D01E4B4FF000629A6002B092
:100318007047194B1B491A6C1B4842F080521A64EB
:100328000A6842F480420A609A689A609A6842F4BD
:1003380000429A609A6842F4A0529A6058601A681B
:1003480042F080721A601A4611680B4B8901FBD57E
:100358000E4A40F2056111609A6822F003029A6021
:100368009A6842F002029A601A46936803F00C03F6
:10037800082BFAD1C7E700BF00380240103000242C
:1003880000ED00E00070004008544007003C0240C7
:100398001848836803F00C03042B28D0082B09D0D5
:1003A800154B144A15499268C2F303128A5CD3406C
:1003B8000B6170474368416813F4800F436818BFA6
:1003C8000F4801F03F020CBF0B49B0FBF2F1C3F339
:1003D800881308BFB1FBF2F101FB03F2054B5B6820
:1003E800C3F3014301335B00B2FBF3F3D9E7044BDA
:1003F800D7E700BF003802400024F40004000020C2
:1004080040787D01F0B5D1F804E007680E7A8C7A5F
:10041800C97A4FEA4E0203239340DB431F4007602B
:1004280006FA02F706683E4306604668012505FAA3
:100438000EF526EA0505456085681D4085608568D6
:1004480094402C438460C4682340C360C36801FAA5
:1004580002F21A43C260F0BD002103E00B4B5B5867
:10046800435004310A480B4B42189A42F6D30A4AC1
:1004780002E0002342F8043B084B9A42F9D3FFF705
:100488000DFF00F04DF800F00DF870471008000857
:1004980000000020440400204804002064040020D8
:1004A800FEE7000030B5134A1348136B85B043F0DC
:1004B8000803136301A9002201230C2502240392D7
:1004C800019202958DF80C308DF80D308DF80F40A3
:1004D800FFF798FF08484FF48051084B01831A46EC
:1004E800013B002AFBD1054B41831A46013B002AF8
:1004F800FBD1F2E700380240000C0240FFFFEF009A
:1005080008B50021044600F08BF8044B1868C36B4B
:1005180003B19847204600F06DF900BFDC070008DA
:1005280070B50F4E0F4D761BB61018BF002405D0BE
:10053800013455F8043B9847A642F9D10A4E0B4DB1
:10054800761B00F04BF9B61018BF002406D0013412
:1005580055F8043B9847A642F9D170BD70BD00BF5D
:1005680004080008040800080C080008040800082B
:1005780070B4840746D0541E002A41D0CDB2034639
:1005880002E0621EE4B3144603F8015B9A07F8D14F
:10059800032C2ED9CDB245EA05250F2C45EA054591
:1005A80019D903F110022646103E0F2E42F8105CAE
:1005B80042F80C5C42F8085C42F8045C02F1100254
:1005C800F2D8A4F1100222F00F0204F00F04103246
:1005D800032C13440DD91E462246043A032A46F832
:1005E800045BFAD8221F22F003020432134404F0F9
:1005F80003042CB1C9B21C4403F8011BA342FBD16C
:1006080070BC704714460346C2E700BF024B13B1E3
:10061800024800F071B87047000000000D0700089C
:100628002DE9F04F324B85B01B68029303F5A47394
:1006380001900E460393029BD3F848713FB3DDF84F
:100648000CA04FF00109D3467C68651E0ED4013416
:1006580007EB84044FF00008E6B1D4F800319E425D
:1006680018D0013D6B1CA4F10404F5D1214B73B1E2
:100678007B68002B36D13B68002B34D03846CBF84A
:100688000030AFF30080DBF80070002FDCD105B03C
:10069800BDE8F08F7B682268013BAB420CBF7D60F0
:1006A800C4F80080002ADCD0D7F88811D7F804A055
:1006B80009FA05F30B420FD0D7F88C110B420DD174
:1006C800D4F88010019890477B685345B3D1DBF884
:1006D8000030BB42C5D0AEE79047F5E7D4F88000BC
:1006E8009047F1E73B68BB461F46002FACD1CEE7E9
:1006F800DC07000800000000002301461A461846DF
:1007080000F014B838B5074D074C2C1BA41005D0C1
:10071800013C55F8043D9847002CF9D1BDE8384014
:1007280000F062B8100800080C0800082DE9F0472E
:10073800254C2568D5F8484106468846924699468C
:10074800C4B360681F2817DC431C76B104EB80052E
:100758000122C5F888A0D4F8881182401143022EDE
:10076800C4F88811C5F808911ED00230636044F8B7
:1007780020800020BDE8F087144B03B34FF4C87005
:10078800AFF300800446D0B1D5F84831002780E89F
:100798008800C5F8484138460123C4F88871C4F870
:1007A8008C71002EE1D0D1E7D4F88C110A43C4F83B
:1007B8008C21DAE705F5A674C5F84841C1E74FF082
:1007C800FF30BDE8F08700BFDC070008000000002C
:1007D800430000001800002000000000F8B500BF2A
:1007E800F8BC08BC9E467047F8B500BFF8BC08BC0A
:0407F8009E46704762
:0807FC00E8F9FF7F0100000095
:0808040015060008AD01000813
:04080C008901000856
:1008100000000000000000000000000001020304CE
:1008200006070809007A030A0000000004030020FC
:100830006C030020D4030020000000000000000032
:1008400000000000000000000000000000000000A8
:10085000000000000000000000000000D8070008B1
:100860000000000000000000000000000000000088
:100870000000000000000000000000000000000078
:100880000000000000000000000000000000000068
:100890000000000000000000000000000000000058
:1008A0000000000000000000000000000000000048
:1008B0000000000000000000000000000000000038
:1008C0000000000000000000000000000000000028
:1008D00001000000000000000E33CDAB34126DE6C5
:1008E000ECDE05000B00000000000000000000002E
:1008F00000000000000000000000000000000000F8
:1009000000000000000000000000000000000000E7
:1009100000000000000000000000000000000000D7
:1009200000000000000000000000000000000000C7
:040C50001800002068
:040C5400000000009C
:04000005080004618A
:00000001FF
