:020000040800F2
:10000000000002202D0B0008810200088502000874
:10001000890200088D02000891020008000000001B
:100020000000000000000000000000009502000831
:1000300099020008000000009D020008A1020008CB
:10004000750B0008750B0008750B0008750B000890
:10005000750B0008750B0008750B0008750B000880
:10006000750B0008750B0008750B0008750B000870
:10007000750B0008750B0008750B0008750B000860
:10008000750B0008750B0008750B0008750B000850
:10009000750B0008750B0008750B0008750B000840
:1000A000750B0008750B0008750B0008750B000830
:1000B000750B0008750B0008750B0008750B000820
:1000C000750B0008750B0008750B0008750B000810
:1000D000750B0008750B0008750B0008750B000800
:1000E000750B0008750B0008750B0008750B0008F0
:1000F000750B0008750B0008750B0008750B0008E0
:10010000750B0008750B0008750B0008750B0008CF
:10011000750B0008750B0008750B0008750B0008BF
:10012000750B0008750B0008750B0008750B0008AF
:10013000750B0008750B0008750B0008750B00089F
:10014000750B0008750B0008750B0008750B00088F
:10015000750B0008750B0008750B0008750B00087F
:10016000750B0008750B0008750B0008750B00086F
:10017000750B0008750B0008750B0008750B00085F
:08018000750B0008750B000867
:1001880010B5054C237833B9044B13B10448AFF3C9
:1001980000800123237010BD5804002000000000D7
:1001A800B00E0008084B10B51BB108490848AFF35A
:1001B80000800848036803B910BD074B002BFBD02B
:1001C800BDE81040184700BF000000005C04002094
:1001D800B00E00085404002000000000154B002B4E
:1001E80008BF134B9D46A3F5803A00218B460F4666
:1001F8001348144A121A00F023FD0F4B002B00D0AD
:1002080098470E4B002B00D098470020002104008F
:100218000D000D48002802D00C4800F0D5FD00F074
:10022800E7FC2000290000F0A3FC00F0D1FC00BF8F
:1002380000000800000000000000000000000000AE
:10024800580400207C040020D10D0008DD0D0008B2
:10025800E00E00080000002054040020580400208C
:100268007C04002082B00190019B5A1E0192002B51
:10027800FAD102B0704700BF704700BFFEE700BF69
:10028800FEE700BFFEE700BFFEE700BF704700BF04
:10029800704700BF704700BF704700BF364B3748F4
:1002A8001A68002142F001021A6099601A6822F067
:1002B800847222F480321A6058601A6882B022F47C
:1002C80080221A60D960009101911A6842F4803244
:1002D8001A601A4603E0009BB3F5A06F09D01368B3
:1002E80003F400330193009B01330093019B002B1F
:1002F800F1D0214B1B6813F4003318BF012301937D
:10030800019B012B05D01E4B4FF000629A6002B092
:100318007047194B1B491A6C1B4842F080521A64EB
:100328000A6842F480420A609A689A609A6842F4BD
:1003380000429A609A6842F4A0529A6058601A681B
:1003480042F080721A601A4611680B4B8901FBD57E
:100358000E4A40F2056111609A6822F003029A6021
:100368009A6842F002029A601A46936803F00C03F6
:10037800082BFAD1C7E700BF00380240103000242C
:1003880000ED00E00070004008544007003C0240C7
:100398001848836803F00C03042B28D0082B09D0D5
:1003A800154B144A15499268C2F303128A5CD3406C
:1003B8000B6170474368416813F4800F436818BFA6
:1003C8000F4801F03F020CBF0B49B0FBF2F1C3F339
:1003D800881308BFB1FBF2F101FB03F2054B5B6820
:1003E800C3F3014301335B00B2FBF3F3D9E7044BDA
:1003F800D7E700BF003802400024F40004000020C2
:1004080040787D010A4B0B481A68002142F001022E
:100418001A6099601A6822F0847222F480321A6095
:1004280058601A6822F480221A60D960704700BFA9
:100438000038024010300024024B00221A70187055
:10044800704700BF0238024082B000230A4A019375
:1004580002E0B3F5A06F08D0136813F4003F019BC6
:1004680003F101030193019BF3D0034B1868C0F318
:10047800404002B0704700BF00380240034A13688A
:1004880023F0F80343EAC0001060704700380240C8
:10049800014B1860704700BF00004742064B00221E
:1004A80001281A701A7005D0042802D105221A7082
:1004B800704770471870704770380240014B1860D9
:1004C800704700BF800E474230B4029C064D40EA98
:1004D800046001435B08013B41EA821242EA03409F
:1004E800686030BC704700BF00380240014B18609C
:1004F800704700BF600047420907034B41EA80107C
:10050800C3F88400704700BF00380240014B1860F0
:10051800704700BF68004742014B1860704700BF32
:100528004C004742034A936823F0EC63194308439D
:100538009060704700380240034A936823F078437C
:10054800194308439060704700380240034A936893
:1005580023F0030318439060704700BF003802403F
:10056800024B986800F00C00704700BF003802404A
:10057800034A936823F0F00318439060704700BF64
:1005880000380240034A936823F4E053184390600C
:10059800704700BF00380240034A936823F4604361
:1005A80043EAC000906070470038024010B4214C04
:1005B800A36803F00C03042B1BD0082B1CD01E4B84
:1005C80003601C4A1D499468C4F303140C5DE3409E
:1005D80043609468C4F382240C5D23FA04F48460B5
:1005E80092685DF8044BC2F342328A5CD340C36020
:1005F8007047134B0360E4E76368616813F4800F86
:10060800636818BF0E4C01F03F020CBF0A49B4FBE7
:10061800F2F1C3F3881308BFB1FBF2F101FB03F257
:10062800044B5B68C3F3014301335B00B2FBF3F394
:100638000360C6E7003802400024F40018000020D8
:1006480040787D0100F44073B3F5407F09D1084933
:100658008B6820F0704223F4F81322F4407213439D
:100668008B60034A136FC0F30B0018431067704781
:1006780000380240014B1860704700BF3C0E4742EB
:10068800014B1860704700BF400E4742014B18608D
:10069800704700BF5C01474229B9054A136B23EA3A
:1006A800000010637047024B1A6B104318637047C1
:1006B8000038024029B9054A536B23EA0000506309
:1006C8007047024B5A6B104358637047003802401A
:1006D80029B9054A936B23EA000090637047024BDF
:1006E8009A6B1043986370470038024029B9054A4D
:1006F800136C23EA000010647047024B1A6C104315
:10070800186470470038024029B9054A536C23EA37
:10071800000050647047024B5A6C1043586470478D
:100728000038024029B9054A136923EA000010611C
:100738007047024B1A69104318617047003802402D
:1007480029B9054A536923EA000050617047024BF2
:100758005A691043586170470038024029B9054A60
:10076800936923EA000090617047024B9A6910432D
:10077800986170470038024029B9054A136A23EA8C
:10078800000010627047024B1A6A104318627047E3
:100798000038024029B9054A536A23EA000050622A
:1007A8007047024B5A6A104358627047003802403B
:1007B80029B9054A136D23EA000010657047024BFA
:1007C8001A6D1043186570470038024029B9054A68
:1007D800536D23EA000050657047024B5A6D104371
:1007E800586570470038024029B9054A936D23EAD5
:1007F800000090657047024B9A6D104398657047EA
:100808000038024029B9054A136E23EA0000106631
:100818007047024B1A6E1043186670470038024042
:1008280029B9054A536E23EA000050667047024B07
:100838005A6E1043586670470038024029B9054A75
:10084800137823EA000010707047024B1A7810439F
:10085800187070470D3802404309012B0BD0022B4A
:10086800094B0CBF1B6F5B6F00F01F0023FA00F0F1
:1008780000F001007047044B1B6800F01F0023FACA
:1008880000F000F00100704700380240024A536F40
:1008980043F080735367704700380240034BDB68AE
:1008A800184214BF01200020704700BF00380240E2
:1008B800014B1870704700BF0E38024008B53C4B1A
:1008C800984224D03B4B98422BD03B4B984232D095
:1008D8003A4B984239D03A4B984240D0394B9842DB
:1008E80047D0394B98424ED0384B984255D0384B68
:1008F800984200D008BD01214FF48070FFF712FF25
:1009080000214FF48070BDE80840FFF70BBF0121BC
:100918000846FFF707FF00210120BDE80840FFF760
:1009280001BF01210220FFF7FDFE00210220BDE8E2
:100938000840FFF7F7BE01210420FFF7F3FE00216E
:100948000420BDE80840FFF7EDBE01210820FFF7AD
:10095800E9FE00210820BDE80840FFF7E3BE0121B9
:100968001020FFF7DFFE00211020BDE80840FFF748
:10097800D9BE01212020FFF7D5FE00212020BDE8A7
:100988000840FFF7CFBE01214020FFF7CBFE002132
:100998004020BDE80840FFF7C5BE01218020FFF7D1
:1009A800C1FE00218020BDE80840FFF7BBBE00BFA4
:1009B800000002400004024000080240000C02400F
:1009C800001002400014024000180240001C0240BF
:1009D8000020024000222DE9F0471346D1F800E03C
:1009E80001274FF0030C04E00133102B02F102023F
:1009F80029D007FA03F434EA0E05F5D1D0F80080BF
:100A08000E790CFA02F5ED4308EA0508C0F80080F3
:100A1800D0F8009006FA02FA013E4AEA0909012EC6
:100A28000CFA02F8C0F800900FD9C568CC7925EA0D
:100A38000805C560C568944001332C43102BC46079
:100A480002F10202D5D1BDE8F087866891F80590D9
:100A58003540856086688D7909FA02F949EA060603
:100A68008660466826EA04044460466805FA03F48A
:100A7800A4B234434460D8E700234FF6FF72026003
:100A8800037143718371C371704700BF82B04FF423
:100A980080330193019B0B430193019BC361C161A7
:100AA800019BC361C3690193C369019302B0704795
:100AB8000369194214BF012000207047006980B201
:100AC800704700BF4369194214BF012000207047D6
:100AD800406980B2704700BF018370474183704707
:100AE8000AB9418370470183704700BF416170476D
:100AF8004369594041617047CB0800EB830001F01E
:100B0800070110B48900046A0F238B4024EA030309
:100B18000362036A5DF8044B8A4042EA03010162FA
:100B2800704700BF002103E00B4B5B584350043172
:100B38000A480B4B42189A42F6D30A4A02E00023AD
:100B480042F8043B084B9A42F9D3FFF7A7FB00F0A1
:100B58004FF800F00DF87047E00E00080000002084
:100B680054040020580400207C040020FEE7000004
:100B780008B501210820FFF78FFD124B124800220B
:100B88004FF470460125032419461E601D715C71DF
:100B98009A71DA71FFF71EFF4FF480510A48FFF788
:100BA8009BFF0A4B1A46013B002AFBD14FF48051A8
:100BB8000548FFF793FF054B1A46013B002AFBD176
:100BC800EAE700BF74040020000C0240FFFFEF00BA
:100BD80008B50021044600F08BF8044B1868C36B75
:100BE80003B19847204600F06DF900BFAC0E00082D
:100BF80070B50F4E0F4D761BB61018BF002405D0E8
:100C0800013455F8043B9847A642F9D10A4E0B4DDA
:100C1800761B00F04BF9B61018BF002406D001343B
:100C280055F8043B9847A642F9D170BD70BD00BF86
:100C3800D40E0008D40E0008DC0E0008D40E0008FC
:100C480070B4840746D0541E002A41D0CDB2034662
:100C580002E0621EE4B3144603F8015B9A07F8D178
:100C6800032C2ED9CDB245EA05250F2C45EA0545BA
:100C780019D903F110022646103E0F2E42F8105CD7
:100C880042F80C5C42F8085C42F8045C02F110027D
:100C9800F2D8A4F1100222F00F0204F00F0410326F
:100CA800032C13440DD91E462246043A032A46F85B
:100CB800045BFAD8221F22F003020432134404F022
:100CC80003042CB1C9B21C4403F8011BA342FBD195
:100CD80070BC704714460346C2E700BF024B13B10D
:100CE800024800F071B8704700000000DD0D0008F0
:100CF8002DE9F04F324B85B01B68029303F5A473BE
:100D080001900E460393029BD3F848713FB3DDF878
:100D18000CA04FF00109D3467C68651E0ED401343F
:100D280007EB84044FF00008E6B1D4F800319E4286
:100D380018D0013D6B1CA4F10404F5D1214B73B10B
:100D48007B68002B36D13B68002B34D03846CBF873
:100D58000030AFF30080DBF80070002FDCD105B065
:100D6800BDE8F08F7B682268013BAB420CBF7D6019
:100D7800C4F80080002ADCD0D7F88811D7F804A07E
:100D880009FA05F30B420FD0D7F88C110B420DD19D
:100D9800D4F88010019890477B685345B3D1DBF8AD
:100DA8000030BB42C5D0AEE79047F5E7D4F88000E5
:100DB8009047F1E73B68BB461F46002FACD1CEE712
:100DC800AC0E000800000000002301461A46184631
:100DD80000F014B838B5074D074C2C1BA41005D0EB
:100DE800013C55F8043D9847002CF9D1BDE838403E
:100DF80000F062B8E00E0008DC0E00082DE9F047AC
:100E0800254C2568D5F848410646884692469946B5
:100E1800C4B360681F2817DC431C76B104EB800557
:100E28000122C5F888A0D4F8881182401143022E07
:100E3800C4F88811C5F808911ED00230636044F8E0
:100E480020800020BDE8F087144B03B34FF4C8702E
:100E5800AFF300800446D0B1D5F84831002780E8C8
:100E68008800C5F8484138460123C4F88871C4F899
:100E78008C71002EE1D0D1E7D4F88C110A43C4F864
:100E88008C21DAE705F5A674C5F84841C1E74FF0AB
:100E9800FF30BDE8F08700BFAC0E0008000000007E
:100EA800430000002800002000000000F8B500BF43
:100EB800F8BC08BC9E467047F8B500BFF8BC08BC33
:040EC8009E4670478B
:080ECC0018F3FF7F0100000094
:080ED400E50C0008AD01000867
:040EDC008901000880
:100EE00000000000000000000000000001020304F8
:100EF00006070809007A030A000000000102030443
:100F00000102030406070809000000001403002082
:100F10007C030020E403002000000000000000002B
:100F200000000000000000000000000000000000C1
:100F3000000000000000000000000000A80E0008F3
:100F400000000000000000000000000000000000A1
:100F50000000000000000000000000000000000091
:100F60000000000000000000000000000000000081
:100F70000000000000000000000000000000000071
:100F80000000000000000000000000000000000061
:100F90000000000000000000000000000000000051
:100FA0000000000000000000000000000000000041
:100FB00001000000000000000E33CDAB34126DE6DE
:100FC000ECDE05000B000000000000000000000047
:100FD0000000000000000000000000000000000011
:100FE0000000000000000000000000000000000001
:100FF00000000000000000000000000000000000F1
:1010000000000000000000000000000000000000E0
:041330002800002071
:0413340000000000B5
:0400000508000B2DB7
:00000001FF
